{
  "_format": "hh-sol-artifact-1",
  "contractName": "ERC20Swapper",
  "sourceName": "contracts/ERC20Swapper.sol",
  "abi": [
    {
      "inputs": [
        {
          "internalType": "address",
          "name": "routerAddres",
          "type": "address"
        },
        {
          "internalType": "address",
          "name": "wethAddress",
          "type": "address"
        }
      ],
      "stateMutability": "nonpayable",
      "type": "constructor"
    },
    {
      "inputs": [],
      "name": "MinAmountZero",
      "type": "error"
    },
    {
      "inputs": [],
      "name": "NotOwner",
      "type": "error"
    },
    {
      "inputs": [],
      "name": "ZeroAddress",
      "type": "error"
    },
    {
      "inputs": [],
      "name": "getOwner",
      "outputs": [
        {
          "internalType": "address",
          "name": "",
          "type": "address"
        }
      ],
      "stateMutability": "view",
      "type": "function"
    },
    {
      "inputs": [],
      "name": "getRouterAddress",
      "outputs": [
        {
          "internalType": "address",
          "name": "",
          "type": "address"
        }
      ],
      "stateMutability": "view",
      "type": "function"
    },
    {
      "inputs": [],
      "name": "getWethAddress",
      "outputs": [
        {
          "internalType": "address",
          "name": "",
          "type": "address"
        }
      ],
      "stateMutability": "view",
      "type": "function"
    },
    {
      "inputs": [
        {
          "internalType": "address",
          "name": "newRouterAddress",
          "type": "address"
        }
      ],
      "name": "setRouterAddress",
      "outputs": [],
      "stateMutability": "nonpayable",
      "type": "function"
    },
    {
      "inputs": [
        {
          "internalType": "address",
          "name": "newWeth",
          "type": "address"
        }
      ],
      "name": "setWethAddress",
      "outputs": [],
      "stateMutability": "nonpayable",
      "type": "function"
    },
    {
      "inputs": [
        {
          "internalType": "address",
          "name": "token",
          "type": "address"
        },
        {
          "internalType": "uint256",
          "name": "minAmount",
          "type": "uint256"
        }
      ],
      "name": "swapEtherToToken",
      "outputs": [
        {
          "internalType": "uint256",
          "name": "",
          "type": "uint256"
        }
      ],
      "stateMutability": "payable",
      "type": "function"
    },
    {
      "inputs": [
        {
          "internalType": "address",
          "name": "newOwner",
          "type": "address"
        }
      ],
      "name": "transferOwnership",
      "outputs": [],
      "stateMutability": "nonpayable",
      "type": "function"
    }
  ],
  "bytecode": "0x60806040523480156200001157600080fd5b5060405162000f7b38038062000f7b83398181016040528101906200003791906200020b565b600073ffffffffffffffffffffffffffffffffffffffff168173ffffffffffffffffffffffffffffffffffffffff1614806200009f5750600073ffffffffffffffffffffffffffffffffffffffff168273ffffffffffffffffffffffffffffffffffffffff16145b15620000d7576040517fd92e233d00000000000000000000000000000000000000000000000000000000815260040160405180910390fd5b336000806101000a81548173ffffffffffffffffffffffffffffffffffffffff021916908373ffffffffffffffffffffffffffffffffffffffff16021790555080600160006101000a81548173ffffffffffffffffffffffffffffffffffffffff021916908373ffffffffffffffffffffffffffffffffffffffff16021790555081600260006101000a81548173ffffffffffffffffffffffffffffffffffffffff021916908373ffffffffffffffffffffffffffffffffffffffff160217905550505062000252565b600080fd5b600073ffffffffffffffffffffffffffffffffffffffff82169050919050565b6000620001d382620001a6565b9050919050565b620001e581620001c6565b8114620001f157600080fd5b50565b6000815190506200020581620001da565b92915050565b60008060408385031215620002255762000224620001a1565b5b60006200023585828601620001f4565b92505060206200024885828601620001f4565b9150509250929050565b610d1980620002626000396000f3fe6080604052600436106100705760003560e01c8063893d20e81161004e578063893d20e8146100f9578063a96e242314610124578063d54f7d5e1461014d578063f2fde38b1461017857610070565b806323a7b42a1461007557806341cb87fc146100a05780637a2a0456146100c9575b600080fd5b34801561008157600080fd5b5061008a6101a1565b604051610097919061089b565b60405180910390f35b3480156100ac57600080fd5b506100c760048036038101906100c291906108f6565b6101cb565b005b6100e360048036038101906100de9190610959565b6102fc565b6040516100f091906109a8565b60405180910390f35b34801561010557600080fd5b5061010e6105a6565b60405161011b919061089b565b60405180910390f35b34801561013057600080fd5b5061014b600480360381019061014691906108f6565b6105cf565b005b34801561015957600080fd5b50610162610700565b60405161016f919061089b565b60405180910390f35b34801561018457600080fd5b5061019f600480360381019061019a91906108f6565b61072a565b005b6000600160009054906101000a900473ffffffffffffffffffffffffffffffffffffffff16905090565b60008054906101000a900473ffffffffffffffffffffffffffffffffffffffff1673ffffffffffffffffffffffffffffffffffffffff163373ffffffffffffffffffffffffffffffffffffffff1614610250576040517f30cd747100000000000000000000000000000000000000000000000000000000815260040160405180910390fd5b80600073ffffffffffffffffffffffffffffffffffffffff168173ffffffffffffffffffffffffffffffffffffffff16036102b7576040517fd92e233d00000000000000000000000000000000000000000000000000000000815260040160405180910390fd5b81600260006101000a81548173ffffffffffffffffffffffffffffffffffffffff021916908373ffffffffffffffffffffffffffffffffffffffff1602179055505050565b6000808203610337576040517f610ca27500000000000000000000000000000000000000000000000000000000815260040160405180910390fd5b6000600267ffffffffffffffff811115610354576103536109c3565b5b6040519080825280602002602001820160405280156103825781602001602082028036833780820191505090505b509050600160009054906101000a900473ffffffffffffffffffffffffffffffffffffffff16816000815181106103bc576103bb6109f2565b5b602002602001019073ffffffffffffffffffffffffffffffffffffffff16908173ffffffffffffffffffffffffffffffffffffffff1681525050838160018151811061040b5761040a6109f2565b5b602002602001019073ffffffffffffffffffffffffffffffffffffffff16908173ffffffffffffffffffffffffffffffffffffffff1681525050600260009054906101000a900473ffffffffffffffffffffffffffffffffffffffff1673ffffffffffffffffffffffffffffffffffffffff1663b6f9de9534858433426040518663ffffffff1660e01b81526004016104a79493929190610adf565b6000604051808303818588803b1580156104c057600080fd5b505af11580156104d4573d6000803e3d6000fd5b50505050506000600260009054906101000a900473ffffffffffffffffffffffffffffffffffffffff1673ffffffffffffffffffffffffffffffffffffffff1663d06ca61f34846040518363ffffffff1660e01b8152600401610538929190610b2b565b600060405180830381865afa158015610555573d6000803e3d6000fd5b505050506040513d6000823e3d601f19601f8201168201806040525081019061057e9190610c9a565b905080600181518110610594576105936109f2565b5b60200260200101519250505092915050565b60008060009054906101000a900473ffffffffffffffffffffffffffffffffffffffff16905090565b60008054906101000a900473ffffffffffffffffffffffffffffffffffffffff1673ffffffffffffffffffffffffffffffffffffffff163373ffffffffffffffffffffffffffffffffffffffff1614610654576040517f30cd747100000000000000000000000000000000000000000000000000000000815260040160405180910390fd5b80600073ffffffffffffffffffffffffffffffffffffffff168173ffffffffffffffffffffffffffffffffffffffff16036106bb576040517fd92e233d00000000000000000000000000000000000000000000000000000000815260040160405180910390fd5b81600160006101000a81548173ffffffffffffffffffffffffffffffffffffffff021916908373ffffffffffffffffffffffffffffffffffffffff1602179055505050565b6000600260009054906101000a900473ffffffffffffffffffffffffffffffffffffffff16905090565b60008054906101000a900473ffffffffffffffffffffffffffffffffffffffff1673ffffffffffffffffffffffffffffffffffffffff163373ffffffffffffffffffffffffffffffffffffffff16146107af576040517f30cd747100000000000000000000000000000000000000000000000000000000815260040160405180910390fd5b80600073ffffffffffffffffffffffffffffffffffffffff168173ffffffffffffffffffffffffffffffffffffffff1603610816576040517fd92e233d00000000000000000000000000000000000000000000000000000000815260040160405180910390fd5b816000806101000a81548173ffffffffffffffffffffffffffffffffffffffff021916908373ffffffffffffffffffffffffffffffffffffffff1602179055505050565b600073ffffffffffffffffffffffffffffffffffffffff82169050919050565b60006108858261085a565b9050919050565b6108958161087a565b82525050565b60006020820190506108b0600083018461088c565b92915050565b6000604051905090565b600080fd5b600080fd5b6108d38161087a565b81146108de57600080fd5b50565b6000813590506108f0816108ca565b92915050565b60006020828403121561090c5761090b6108c0565b5b600061091a848285016108e1565b91505092915050565b6000819050919050565b61093681610923565b811461094157600080fd5b50565b6000813590506109538161092d565b92915050565b600080604083850312156109705761096f6108c0565b5b600061097e858286016108e1565b925050602061098f85828601610944565b9150509250929050565b6109a281610923565b82525050565b60006020820190506109bd6000830184610999565b92915050565b7f4e487b7100000000000000000000000000000000000000000000000000000000600052604160045260246000fd5b7f4e487b7100000000000000000000000000000000000000000000000000000000600052603260045260246000fd5b600081519050919050565b600082825260208201905092915050565b6000819050602082019050919050565b610a568161087a565b82525050565b6000610a688383610a4d565b60208301905092915050565b6000602082019050919050565b6000610a8c82610a21565b610a968185610a2c565b9350610aa183610a3d565b8060005b83811015610ad2578151610ab98882610a5c565b9750610ac483610a74565b925050600181019050610aa5565b5085935050505092915050565b6000608082019050610af46000830187610999565b8181036020830152610b068186610a81565b9050610b15604083018561088c565b610b226060830184610999565b95945050505050565b6000604082019050610b406000830185610999565b8181036020830152610b528184610a81565b90509392505050565b600080fd5b6000601f19601f8301169050919050565b610b7a82610b60565b810181811067ffffffffffffffff82111715610b9957610b986109c3565b5b80604052505050565b6000610bac6108b6565b9050610bb88282610b71565b919050565b600067ffffffffffffffff821115610bd857610bd76109c3565b5b602082029050602081019050919050565b600080fd5b600081519050610bfd8161092d565b92915050565b6000610c16610c1184610bbd565b610ba2565b90508083825260208201905060208402830185811115610c3957610c38610be9565b5b835b81811015610c625780610c4e8882610bee565b845260208401935050602081019050610c3b565b5050509392505050565b600082601f830112610c8157610c80610b5b565b5b8151610c91848260208601610c03565b91505092915050565b600060208284031215610cb057610caf6108c0565b5b600082015167ffffffffffffffff811115610cce57610ccd6108c5565b5b610cda84828501610c6c565b9150509291505056fea2646970667358221220ffa9f2f54f2055a5d1480c34563c0a1555ad725b76c0518fb15caa40cc8458f864736f6c63430008180033",
  "linkReferences": {},
  "deployedLinkReferences": {}
}